:020000040800F2
:10000000E83D00204501000865210008111C00089A
:1000100000000000000000000000000000000000E0
:10002000000000000000000000000000E7240008BD
:100030000000000000000000030100083D3500083A
:100040005701000800000000570100085701000890
:100050005701000857010008570100085701000820
:100060000000000057010008570100085701000870
:100070005701000857010008570100080000000060
:1000800057010008C1350008570100085701000852
:1000900057010008570100085701000857010008E0
:1000A000570100085701000857010008D939000816
:1000B000093A0008570100080348854600F0D4FBC0
:1000C00000480047ED400008E83D0020084B196853
:1000D0000868203080F30988022080F31488BFF379
:1000E0006F8F3FBCAE4608BC04BC62B61847000028
:1000F00030000020EFF3108072B6704780F3108854
:100100007047EFF309800E4B1A6820381060F0C07A
:1001100044464D4656465F46F0C008B572B604F0F8
:1001200083FE62B60CBC116808681030F0C8A046A7
:10013000A946B246BB4680F309882038F0C8184764
:10014000300000200448804704480047FEE7FEE7EF
:10015000FEE7FEE7FEE7FEE7BD350008B900000850
:1001600030B50B46014600202022012409E00D464F
:10017000D5409D4205D31D469540491B25469540D7
:1001800040191546521E002DF1DC30BDF0B51FB4EC
:100190000646002082B005464024019100901BE0F5
:1001A000019922460F46304600F020F8049A059B3C
:1001B000801A994110D310461946224600F080FA61
:1001C000361A8F410197224601200021009F00F03E
:1001D00077FA38184D4100902046641E0028DFDC75
:1001E000019B00982946324607B0F0BD10B5202A81
:1001F00004DB0846203AD040002110BD0B46D34016
:10020000D0402024A21A91400843194610BD03464D
:100210000B439B0703D009E008C9121F08C0042A3A
:10022000FAD203E00B780370401C491C521EF9D22D
:100230007047D2B201E00270401C491EFBD27047E9
:100240000022F6E710B513460A4604461946FFF7A2
:10025000F0FF204610BD30B505462A460B46107803
:100260001C78521C5B1C002801D0A042F7D0002C47
:1002700003D0002802D06D1CEFE7284630BD0000F7
:10028000F0B507460846584087B0C00F04904800B4
:100290000E46590040084908BC1A884105D2384624
:1002A00031461E4617460B4602465800400810438A
:1002B0004CD0300D039040055900400D490D05907C
:1002C000401A0290402872DA18030121000B090538
:1002D0000843019004980092002805D001995242E9
:1002E0000020884100920190029840210A1A019949
:1002F000009800F0E5F905460C466B4607CB00F088
:10030000EFF9C0197141039A0E0D0023D71756401B
:100310001A467A40164344D0049A002A2DD0029AF5
:10032000012A039A15DC1205C01A914101263605EF
:10033000001C7141D20F059ED207009301920296D4
:100340002A46234600F0ECF907B0F0BD38463146A6
:10035000FAE71605224A0F46B218C01AB741012122
:100360000905001C4F4100187F41114618187941BA
:10037000E20F10436D19644113E0E2076D08154365
:100380006408C2071443039A01261205C01A91415A
:100390003605001C7141CE07400830434908C0189B
:1003A00051412A46234600F0AEF9CDE7FFE7049815
:1003B00001224000C117121A00238B4104983146D4
:1003C000C417381AA141EEE730B40124E4076340B2
:1003D00030BC55E730B40124E407614030BC4FE73E
:1003E0000000E0FFF0B51FB488B00B990998002415
:1003F00048400999C00F490049080991C0070B9965
:100400000090490049080B9109990898A6460843AD
:100410001CD00B990A98084318D009980124400071
:10042000420D4800410D099824050003000B2043AC
:1004300009900B980003000B20430B9050181C49A7
:100440004018002201901446104605E000200146A5
:100450000DB0F0BD032801DA034600E003239C46FB
:10046000C11A0AAE0AE05F0008ADED5B4F00F75B12
:100470007D430027AA187C41491C5B1E6145F2DDC3
:10048000410004AB5A522104120C0A43240C401CB4
:100490000828DFDB019802900099704601910090D6
:1004A000059B049A0799069800F03AF9D0E70000F6
:1004B0000DFCFFFFF0B50C465C4085B0E40FE4078F
:1004C00003944C00002664085900944649080246EB
:1004D0000296224321D062460A431ED06200570D85
:1004E0004A000E032303550D012402462C4924051E
:1004F000781B1B0B360B40182343264361460090A4
:100500001C46501AB44103D30098401C009002E0EE
:10051000921800985B41002803DA0020014605B0DC
:10052000F0BD0020012109050746864611E064461A
:100530001D46141BB54106D36546521BB341744694
:1005400007430C43A646CD074008490828439218A4
:100550005B4105460D43EAD11046184313D060466F
:10056000194650407140084306D06046101AB34106
:1005700006D20122002306E000220123DB0702E06D
:100580000122D2435310009874460105381C614182
:10059000029C039D0019694100F0B5F8BFE7000017
:1005A000FD03000070B54B005B0803430BD04B000C
:1005B0005C0D002633466542B341D417AD1AA34102
:1005C00002DB0020014670BD12053018514170BD9C
:1005D0000EB5C217C10F5040CA0740180021054B85
:1005E0000293019200910A460B4600F099F803B07D
:1005F00000BD0000330400000EB505490291002142
:1006000000910A460B46019100F08AF803B000BD44
:100610003304000070B5CD0F4A0009030123090B14
:100620001B0519430B4BED070024520D9A4201DACA
:10063000002070BD074B34339A4203DC9A1AFFF74F
:10064000D5FD02E00449511888402C43F1D04042C6
:1006500070BD0000FF030000CDFBFFFF4A0009034F
:100660000123090B1B051943094B10B5520D9A4282
:1006700001DA002010BD064B34339A4203DC9A1A8B
:10068000FFF7B4FD10BD03495118884010BD0000AC
:10069000FF030000CDFBFFFF10B5002904DB0124A0
:1006A000E40740428C412146002B04DB1C46012319
:1006B000DB075242A3418B4200D1824210BD0000B1
:1006C00010B5202A04DB0146203A9140002010BDDD
:1006D000914020239C1A0346E3401943904010BDEB
:1006E00010B5202A06DBCB170846203A1041C11767
:1006F0000B4306E00B461341D0402024A21A914040
:100700000843194610BD10B5002B08DA0024401C20
:10071000614192185B411A4301D14008400010BD6D
:10072000F0B51FB482B005460C0003D0084603F0B4
:1007300023FA02E003F020FA20300246009021461E
:100740002846FFF7BDFF049B059A04460F46184351
:100750001143084314D0184610431BD00098402181
:100760000A1A18460599FFF741FD05460E46009AFC
:1007700005990498FFF7A4FF084305D0012004E081
:100780002046394607B0F0BD0020C11705430E438F
:100790002C43374300990E986305401A7905E40A03
:1007A00000220C43FD0A0A3002D500200146E9E789
:1007B0000105101969410C9C0D9D00196941FFF755
:1007C000A2FFDFE7F8B50546480040080C4628437D
:1007D00004D06000184A400D904201DD2846F8BD63
:1007E00015493539884210DC88420BDB290D20037E
:1007F00008432903014305D0E00F1049C007411801
:100800000020F8BD00200146F8BD161A4020821BCA
:1008100028462146FFF754FF074600912846214607
:100820003246FFF7E3FC3A46009BFFF76CFF324687
:10083000FFF746FFF8BD0000330400000000F03F62
:1008400010B5002904DB0124E40740428C41214615
:10085000002B04DB1C460123DB075242A3419942D3
:1008600000D1904210BD0000064C0125064E05E067
:10087000E36807CC2B430C3C98471034B442F7D3C1
:10088000FFF71EFCBC580008DC58000870B58C1837
:100890000578401C6B075B0F01D10378401C2A11BF
:1008A00006D10278401C03E006780E70401C491CFB
:1008B0005B1EF9D12B0705D40023521E0DD40B70FB
:1008C000491CFAE70378401CCB1A921C03E01D7800
:1008D0000D70491C5B1C521EF9D5A142D8D30020D3
:1008E00070BD7047064A0021D16106490A6902239A
:1008F0001A430A6148610869402210430861704741
:10090000480500200020024010B5054B0022DA61A6
:10091000044A1369012423431361018010BD0000C0
:10092000480500200020024010B50B4A0020D16885
:10093000CB060A4904D5C86902231843C8611020B0
:10094000D3685B0705D5CB6901242343CB61042120
:100950000843D06010BD0000002002404805002080
:1009600070B5054600F054F90646104C0AE0681CC4
:1009700008D0002D04D000F04BF9801BA84201D90B
:10098000032070BDE068C007F1D1E068800601D5A2
:100990002020E060E068C00602D4E068400703D58C
:1009A000FFF7C2FF012070BD002070BD0020024093
:1009B00070B50024014620314A78022A03D0042170
:1009C0008163012416E0026813680E25AB431360AF
:1009D000026813685B085B0013600122056C134614
:1009E000AB40C56B6B604A7000220A70416B0029F6
:1009F00000D08847204670BD03480169802211431A
:100A0000016100207047000000200240F0B51FB4D3
:100A100007461A480024017E15461E46012907D0C4
:100A2000012101761648FFF79BFF002803D020E044
:100A3000022005B0F0BD012F02D0022F00D0042704
:100A4000220128463146FFF7D1FB81B201986200AE
:100A50001018FFF759FF0A48FFF782FF09490A6992
:100A6000520852000A61002803D1641CE4B2BC425F
:100A7000E6D3024900220A76DBE7000048050020A1
:100A800050C3000000200240064900200A691206F7
:100A900007D5054A4A60054A4A600969090600D532
:100AA000012070470020024023016745AB89EFCD4C
:100AB000F8B500238DE001249C40A44622407DD05F
:100AC0004C68022C01D0122C0CD1DC08A400271891
:100AD0003C6A5D07ED0E0F26AE40B4430E69AE4092
:100AE00026433E6205685E000324B4400F79A543A7
:100AF000BF07BF0FB7402F4307604D68012D05D0DA
:100B0000022D03D0112D01D0122D0ED18568CF6892
:100B1000A543B7402F43876047686546AF430D79CB
:100B2000ED06ED0F9D403D434560C568A5438C68CB
:100B3000B4402C43C4604C68E40049D5284CA569F6
:100B400001263543A561A4699D0834400094254CD5
:100B5000AD002F19BC689D072E0F0F25B540AC4383
:100B60000925ED06A84201D100250FE01E4DA8423F
:100B700001D101250AE01D4DA84201D1022505E061
:100B80001B4DA84201D1032500E00525B5402543B2
:100B9000BD60184C25684E689543F60300D5154393
:100BA000256065684E689543B60300D515436560BA
:100BB000A5684E689543F60202D500E008E01543AB
:100BC000A560E5684E689543B60200D51543E5601B
:100BD0005B1C0A681446DC4000D06CE7F8BD0000DE
:100BE00000100240000001400004004800080048D6
:100BF000000C0048000401400069084000D00120BA
:100C00007047002A01D081617047816270470000FF
:100C10000148806870470000200000200248816879
:100C200002788918816070472000002010B50648BE
:100C30000168102211430160002000F007F800F065
:100C400041F8002010BD00000020024000B5014620
:100C500087B00022112000F059F8112000F04AF866
:100C60001348C26910210A43C261C0690840059057
:100C700004A9684600F054F900F06EF90D49FFF739
:100C80006FFA0E490C4A0A600D4A401ECA6048605D
:100C9000002008618860084600F026FD002802D088
:100CA000012007B000BD054800F039FDF9E700005C
:100CB0000010024040420F000010004008050020D4
:100CC000E703000008B50A488169012211438161E8
:100CD000816911400091C26901040A43C261C0697F
:100CE0000022084003210090481F00F00FF808BDC3
:100CF00000100240002805DBC106C90E0120884013
:100D0000014908607047000000E100E010B502F002
:100D10006FFF10BDBFF34F8F04490348C860BFF396
:100D20004F8F00BFFDE700000400FA0500ED00E072
:100D3000F8B505460068354CC00352D5E069002679
:100D4000C00007D4E16920040143E161E169014089
:100D5000012600912E480168C90510D4016882154A
:100D600011430160FFF754FF074604E0FFF750FF0F
:100D7000C01B642824D826480068C005F6D5206A20
:100D800003273F02384020D06968394081421CD097
:100D9000206A226AB843012109040A432262226AB6
:100DA0008A4322622062C0070FD0FFF731FF009014
:100DB00008E0FFF72DFF0099411A1648814201D93A
:100DC0000320F8BD206A8007F3D5206A6968B8431C
:100DD00008432062002E04D0E1690120000781430E
:100DE000E1612878C00705D0206BA96880088000E1
:100DF000084320632878800605D5206B102188439E
:100E0000E968084320630020F8BD0000001002409C
:100E10000070004088130000F8B50F46060059D056
:100E20003A4D2868C007C00FB84209D22868400868
:100E30004000384328602868C007C00FB84249D135
:100E40003068334C81070CD5400704D56068072112
:100E50000902084360606068F0218843B168084374
:100E600060603078C00726D0706801280ED02168F5
:100E700002280ED0890700292CDA616889088900C8
:100E800001436160FFF7C4FE00900DE02168890313
:100E9000F1E78901EFE7FFF7BBFE0099411A1D4812
:100EA000814201D90320F8BD60680C2108407168B7
:100EB00089008842EFD12868C007C00FB8420BD91B
:100EC000286840084000384328602868C007C00FE1
:100ED000B84201D00120F8BD3078400706D56068DF
:100EE000072109028843F1680843606000F044F874
:100EF0006168094A0906090F515CC8400749086042
:100F00000020FFF7A3FE0020F8BD000000200240F3
:100F10000010024088130000645600082C000020D6
:100F200010B5072202600A4A53689B079B0F436073
:100F30005368F02423408360526807231B021A4041
:100F4000C26004480068C007C00F086010BD000000
:100F5000001002400020024004480549006849682A
:100F6000044A4905490F515CC84070472C000020D5
:100F7000001002407456000810B513A30FCB88B0C0
:100F80006C460FC414A30FCB0FC417494B680C2039
:100F90001A4602401548042A13D0082A11D19A0291
:100FA000120F6C46A45CC96A04AA0907090F525CB7
:100FB000D903890F00231946FFF7E8F8214602F00C
:100FC000F2FD08B010BD0000020304050607080981
:100FD0000A0B0C0D0E0F1010010203040506070882
:100FE000090A0B0C0D0E0F100010024000127A00BF
:100FF000FEB5040071D02078DC4DC00749D0686888
:101000000007800F012820D068680007800F0228A1
:1010100004D16868C003800F022816D001206268DE
:101020000004012A18D08100002A01D0052A17D017
:101030002A6882432A6028688843286060680028FC
:101040001BD0FFF7E5FD064613E02868800320D596
:1010500060680028CED01CE0296801432960EDE7D4
:101060002A680A432A60F7E7FFF7D2FD801B64284D
:1010700070D828688003F7D50BE0FFF7C9FD064656
:1010800004E0FFF7C5FD801B6428F1D828688003C1
:10109000F7D420780126800700283EDA6868000728
:1010A000800F13D068680007800F022804D1686899
:1010B000C003800F012809D0E068002828681DD0EF
:1010C00030432860FFF7A4FD07460CE0286880073E
:1010D0000CD5E068012800D108E043E1FFF798FD56
:1010E000C01B0228C4D828688007F7D52868F821D3
:1010F00088432169C900084328600EE04008400089
:101100002860FFF785FD074604E0FFF781FDC01B5F
:101110000228ADD828688007F7D42078000722D5A8
:10112000E0690028686A0ED030436862FFF770FDFE
:10113000074604E0FFF76CFDC01B022898D8686AD8
:101140008007F7D50FE0400840006862FFF760FDB8
:10115000074605E09DE0FFF75BFDC01B022887D82E
:10116000686A8007F7D4207804274007002860DAEF
:1011700000200190E869C00008D4E969B80601437D
:10118000E961E96901400120009101907848016816
:10119000C90511D40168821511430160FFF738FDBC
:1011A000009005E0FFF734FD0099401A642870D8DC
:1011B0006F480068C005F5D5A06801280AD000284E
:1011C00001D0052810D0286A400840002862286A0B
:1011D000B84301E0286A30432862A068002812D092
:1011E000FFF716FD00900AE0286A38432862F1E70D
:1011F000FFF70EFD0099411A5E48814249D8286ADE
:101200008007F5D50DE0FFF703FD009006E0FFF73E
:10121000FFFC0099411A574881423AD8286A800752
:10122000F5D40198002804D0E86901210907884312
:10123000E8612078C00635D5606901280CD0401DD2
:10124000686B23D038436863686B4008400068636C
:10125000FFF7DEFC064622E0686B38436863686B84
:1012600030436863FFF7D4FC064604E0FFF7D0FC88
:10127000801B02285BD8686B8007F7D5686BF82164
:101280008843A169C900084368630BE0B8436863F9
:10129000F4E74CE0FFF7BCFC801B022847D8686BE2
:1012A0008007F7D4206A00285ED069680907890F93
:1012B000022942D0012636060228286805D0B0430C
:1012C0002860FFF7A5FC044633E0B0432860FFF731
:1012D0009FFC074604E0FFF79BFCC01B022826D8B2
:1012E00028688001F7D4E86AE16A00090001084330
:1012F000E862616AA06A084369687B22D20391436D
:1013000008436860286830432860FFF781FC044682
:1013100004E0FFF77DFC001B022808D82868800144
:10132000F7D521E0FFF774FC001B022801D9032048
:10133000FEBD28688001F5D416E00128F8D0686861
:10134000E96A0322D203636A02409A420AD109077A
:10135000E26A090F914205D10F2189040840A16A70
:10136000884201D00120FEBD0020FEBD00100240D9
:101370000070004088130000F8B5040007D0002674
:1013800025464035A662687F002802D005E001208E
:10139000F8BD2E77204600F04BF802236B772068CB
:1013A00001684022914301600721E06809028842F8
:1013B00001D9002201E0012212030F273F02B842A7
:1013C00002D0884200D0A662276B002F05D1884248
:1013D00001D9236301E001202063A168606863698B
:1013E00008432169194308430123A1695B0219409D
:1013F0000843E1690843216A0843A16A0843216858
:101400000860616B606AA36908431B0C0427E168EC
:101410003B40194308432168104348602068C16974
:101420007A029143C1612666012068770020F8BDE9
:1014300010B586B0044614216846FEF701FF114935
:10144000206888421CD11048826981140A43826155
:1014500082690A400592426949010A434261406932
:1014600008400590E0200090022001900021032018
:1014700003900291049109206946C006FFF718FB0A
:1014800006B010BD0030014000100240FFB5044618
:1014900083B0012001900020254640350090287F30
:1014A0000C9F1E4601280FD001202877FFF7B0FBC4
:1014B0000290687F616801280DD0CA1FFD3A08D1EB
:1014C000A168002905D102E0022007B0F0BD042880
:1014D00001D0022004E10498002822D005980028B9
:1014E0001FD0002E1DD0687F042801D0052068770A
:1014F0000020206605992164EE80AE800499A163E6
:10150000E687A687E06420650723E1681B0299420D
:1015100001D8012E07D920684168012212039143A6
:1015200006E00120DCE0206841680122120311433B
:10153000416020680168490603D4016840221143D4
:101540000160E1686068994244D9002801D0012E09
:1015500039D1A06B21680088C860A06B801CA06393
:10156000E08F401EE0872EE020688168890710D553
:10157000E18F00290DD0019901290AD1A16B0988B9
:10158000C160A06B801CA063E08F401EE08700203C
:10159000019020688168C9070DD0E98800290AD028
:1015A000C068216C0880206C801C2064E888401E84
:1015B000E88001200190FFF72BFB0299401AB84206
:1015C00001D3781C71D1E08F0028CDD1E8880028A4
:1015D000CAD173E0002801D0012E69D1E08F012823
:1015E000A06B08D921680088C860A06B801CA0632C
:1015F000E08F801E07E0216800780873A06B401C14
:10160000A063E08F401EE08752E020688168890770
:101610001BD5E18F002918D00199012915D1E18F3F
:101620000129A16B07D90988C160A06B801CA06348
:10163000E08F801E06E009780173A06B401CA06358
:10164000E08F401EE0870020019020688168C90774
:1016500023D0E988002920D0E988012912D9C0685F
:10166000216C0880206C801C2064E888801EE88043
:10167000E88801280FD820684268012109030A433D
:10168000426008E0007B216C0870206C401C2064E4
:10169000E888401EE88001200190FFF7B9FA02991E
:1016A000401AB84202D3781C02D018E0002F16D09E
:1016B000E08F0028A9D1E8880028A6D13946204625
:1016C000029A00F0C9FD002803D0012000902020DC
:1016D000206601206877002028770098F5E603202F
:1016E0000090F6E77047704770B5040005D02546B6
:1016F0002035687F002802D006E0012070BD002060
:101700002877204600F00AF802206877211D20681B
:1017100001F064FF01206877002070BD7047026807
:10172000D36801210B43D360006882685207520FCF
:10173000062A02D002680A43026000207047704700
:1017400070B50446006801690025C943890700296E
:1017500015DBC168C943890711D4E91E0161012065
:101760002077206880698007204602D0FFF7E7FFD6
:1017700004E000F096F8204600F094F82577206801
:101780000169C943490717D4C168C943490713D43C
:101790000421C94301610220207720688069800507
:1017A000800F204602D0FFF7CAFF04E000F079F86E
:1017B000204600F077F8257720680169C9430907BA
:1017C00016D4C168C943090712D40821C94301616D
:1017D000042020772068C0698007204602D0FFF7E8
:1017E000AEFF04E000F05DF8204600F05BF82577DE
:1017F00020680169C943C90617D4C168C943C9062D
:1018000013D41021C9430161082020772068C069E2
:101810008005800F204602D0FFF791FF04E000F022
:1018200040F8204600F03EF8257720680169C9435A
:10183000C90708D1C168C943C90704D1891E01611C
:10184000204600F031F820680169C943090609D42F
:10185000C168C943090605D48021C94301612046F6
:10186000FFF740FF20680169C943490609D4C168F0
:10187000C943490605D44021C9430161204600F00F
:101880001DF820680169C943890609D4C168C943A4
:10189000890605D42021C94301612046FFF723FFB3
:1018A00070BD70477047000010B50068024988425B
:1018B00001D1FFF7B3F910BD001000407047704729
:1018C000F8B502680446D069116893684C4D064625
:1018D0002E402025002E68D0DE07F60FFF27213787
:1018E0000F40374375D0C70706D0CF0504D5012771
:1018F0001762E26F3A43E267820708D5DA0706D03B
:10190000276802223A62E26F04273A43E2674207FD
:1019100008D5DA0706D0236804221A62E26F022390
:101920001A43E267020709D50A462A40324305D026
:10193000236808221A62E36F1343E367020508D5A0
:101940004A0106D501222368D2021A62E26F2A43B5
:10195000E267E26F002A30D0800606D5880604D5FB
:10196000216E002901D020468847E06F21688968F0
:10197000490602D42821084224D0204601F012FF53
:1019800020688168490619D58168402291438160A9
:10199000E06E002812D01B494163E06EFFF708F8A3
:1019A00000280AD0E06E416B06E0830611D58B0655
:1019B0000FD5216E12E020468847F8BD2046FFF77C
:1019C0007EFFF8BD2046FFF77AFF0020E067F8BDF4
:1019D000FFE7030605D50B0603D5616E0029EAD1A2
:1019E000F5E74006F3D54806F1D5116820464023B7
:1019F0009943116065670021616600F008F9E6E728
:101A00000F0800009137000810B5040003D0606F84
:101A1000002802D007E0012010BD002170200155F0
:101A2000204600F027F824206067206801684908F4
:101A300049000160204601F0C5FE0128ECD0606A33
:101A4000002802D0204601F00DFE206841680122E6
:101A5000D2029143416020688168082291438160ED
:101A600020680168012211430160204601F060FEF8
:101A700010BD0000F0B587B0044614216846FEF79B
:101A8000DFFB2B4F0121266800222A48490402234C
:101A900003240125BE4220D18769CE1037438761D8
:101AA00087693740059746690E434661406901934F
:101AB000084005906002009002AE34C609206946D5
:101AC000C006FEF7F5FF002203211B20FFF71EF9D9
:101AD0001B20FFF70FF9184822E0184FBE4224D10F
:101AE000C6690E43C661C6690E40059646690E4337
:101AF000466140690193084005900C20009002AEB9
:101B000034C609206946C006FEF7D2FF0022032131
:101B10001C20FFF7FBF81C20FFF7ECF8064880308C
:101B20000068016820221143016007B0F0BD000089
:101B3000003801400010024008040020004400402A
:101B4000FFB50446406F83B017460D4620285CD190
:101B5000002D0AD0002F08D0A168C001814207D112
:101B60002069002804D1E80702D0012007B0F0BDA9
:101B7000204660300290007C012846D00298012166
:101B800001740020E06721206067FFF741F82646D6
:101B900040360190378277820120A168000381429C
:101BA00002D12069002802D02F46002511E000272D
:101BB0000FE000228021204601F0BCFE002815D154
:101BC000002F15D02168387808857F1C708A401E48
:101BD0007082708A019B002806980090E9D100224B
:101BE0004021204601F0A6FE002808D00320BDE7D2
:101BF00028882168C005C00D0885AD1CE6E72020B7
:101C00006067029900200874B0E70220AEE77047D1
:101C1000FEE70000C6B00F224549464800F0D0FB61
:101C2000434CE38962892189E08803936B4607C3AB
:101C3000A38862882188404801F08EFF00F094FA62
:101C40000026684606803D4D286840698047C0B23E
:101C5000801E030001F0BFFF071A540806055E67E7
:101C60000500F1E736A05FE03CA001F075FF424FB0
:101C7000002210213846FEF7C4FF012291033846A6
:101C8000FEF7BFFF286880688047DDE76682286826
:101C900044A9C26804A8904740A8018A04A84654F1
:101CA00036A001F059FF002705E004A8C15D37A068
:101CB00001F052FF7F1C40A8008AB842F5DC00F01A
:101CC000C3FEFEF7CBFCC7B200F0C4FE01463A46A5
:101CD00030A001F041FF36A001F03EFF40A8018A8C
:101CE00004A801F0A9FE012291032348FEF789FF11
:101CF000092001F0B5FB2F48C06802F0EFFFA3E711
:101D00002DA001F029FF33480188FF380138FEF784
:101D100097FAE8E7012291031748FEF772FF0920BE
:101D200001F09EFB90E72CA001F016FF8CE700006D
:101D30008800002000F00008C0570008A80000201C
:101D40005B757365725D696E666F3A52465F545893
:101D50005F54494D454F5554210D0A005B7573651D
:101D6000725D696E666F3A52465F54585F444F4EDB
:101D700045210D0A0000000000040048526563651B
:101D80006976652064617461207C200025303258BA
:101D900020000000207C20536E72203D2025642C02
:101DA0002052737369203D2025640D0A0000000055
:101DB0000D0A0000000000205B757365725D696E9E
:101DC000666F3A52465F52585F54494D454F5554DD
:101DD000210D0A00582F00205B757365725D696ED6
:101DE000666F3ACEDECFDFCDF8C2E7BBBDD0D121E2
:101DF0000D0A000070B5104C0D4606460122102158
:101E00002046FEF7FEFE0121002289032046FEF750
:101E1000F8FE002404E0315D08A001F09DFE641C82
:101E2000AC42F8DB07A001F097FE0748294600689E
:101E300002693046904770BD000400482530325892
:101E4000200000000D0A0000A8000020104C114FD7
:101E5000114D02260022D2431049A06903F07EF9F9
:101E60000128F7D1A06902F090F9C1B20CA001F0ED
:101E700073FE2988094A11A001F06EFE29780748EF
:101E8000FFF7B8FF7E82E06802F082FFE2E7000021
:101E90000000002088000020582F0020582E00202D
:101EA0005B757365725D696E666F3A5175657565D0
:101EB0005F636F756E743D25640D0A005B75736515
:101EC000725D696E666F3A636F756E743D25647CF2
:101ED000646174613D25730D0A00000070B5094D01
:101EE00006460024E00029583046FEF7B4F90028E1
:101EF00003D0E0004019007970BD641C0F2CF1DBA9
:101F0000002070BD7C56000830B52C4DAFB00FCD11
:101F10006C460FC400216846103D02F022F9284C9F
:101F2000103560610FCD079304AB07C3002104A8EF
:101F3000203D02F016F92035A0610FCD08AD0FC588
:101F4000002108A802F00DF91C49E0611C22303183
:101F50000CA8FEF75CF900210CA802F023F9174940
:101F600020601C224C3113A8FEF751F9002113A860
:101F700002F018F9114960601C2268311AA8FEF7B6
:101F800046F900211AA802F00DF90C49A0601C22A4
:101F9000843121A8FEF73BF9002121A802F002F9C3
:101FA0000649E0601C22A03128A8FEF730F9002184
:101FB00028A802F0F7F820612FB030BDA85500081E
:101FC00000000020F0B587B014216846FEF738F90C
:101FD00030484269012189050A43426142690A4049
:101FE0000592426949110A43426142690A400592D9
:101FF000426949000A434261406900220840059055
:1020000009202549C006FEF7FCFD244F0122394670
:102010002348FEF7F6FD002279002148FEF7F1FD86
:10202000032001240390102609200194694600969C
:102030000294C006FEF73CFD1A4800250090019569
:10204000694602951648FEF733FD01946946144827
:10205000009703950294FEF72BFDA003694631C15A
:1020600069460F480395FEF723FDE0030090092021
:102070000194694603950294C006FEF719FD0220FB
:10208000029069460096039501940548FEF710FDFD
:1020900007B0F0BD001002401080000008200000D2
:1020A00000040048071C000010B511480F490160EA
:1020B000FF21053141600021072281601202016188
:1020C000C2600122416152028261016218224162B2
:1020D000C26181620722C262016308214163FFF786
:1020E0004BF9002801D0FEF7FCFB10BD0030014089
:1020F000A403002010B50C480A490160E1214902FF
:10210000416000218160C16001618161C1610C2277
:10211000016242614162FFF777FC002801D0FEF7BF
:10212000E0FB10BD003801400804002010B50C4849
:102130000A4901604B21C901416000218160C160F1
:1021400001618161C1610C22016242614162FFF75C
:102150005BFC002801D0FEF7C4FB10BD004400402A
:10216000880400207047000010B5254825490388E1
:1021700000228B4219D143888B4216D11321018052
:1021800014214180072383800C23C3801E4B0381CD
:102190004381802383810623C3810182428282821C
:1021A000C28202836721418382830188174B59438E
:1021B000174BCB1817490B6083780B7103794B7160
:1021C00083798B710123CB710B724A728B72CA7245
:1021D00004220A7302890A6142894A61007B0876F7
:1021E00000F01EF80C490860006880470122910346
:1021F0000A48FEF706FD092001F032F910BD000083
:1022000088000020FFFF0000B80B000040420F00D4
:10221000801A701830010020A80000200004004837
:10222000074806490160074941600749816007493D
:10223000C160074901610749416170478929000868
:102240005C370020B9330008B93400086D29000854
:102250009D340008E9320008F8B50F460B461546D4
:102260000092032104460022C90200F01BF8202638
:10227000002812D13B46002280212046009500F024
:1022800059F8002809D103213B4600224902204683
:10229000009500F007F8002803D0206E3043206638
:1022A0000320F8BDF8B51D4617460E46044610E05B
:1022B000032149028E4202D1002F00D1007B681C0D
:1022C00007D0FEF7A5FC0699401AA84208D2002DB7
:1022D00006D0206881683140B942E9D10020F8BDBC
:1022E00020684168E022914341606068C11FFD3968
:1022F0000CD10121A068C903884202D0491188424B
:1023000004D1206801684022914301600120A16A44
:102310004003814207D121680A6882430A6021682C
:102320000A6802430A600120403460770020207769
:102330000320F8BDF8B51D4617460E46044609E0D1
:10234000681C07D0FEF764FC0699401AA8420BD21D
:10235000002D09D020688168304688432ED00020A7
:10236000B842EDD10020F8BD20684168E0229143D9
:1023700041606068C11FFD390CD10121A068C9030B
:10238000884202D04911884204D120680168402265
:10239000914301600120A16A4003814207D1216875
:1023A0000A6882430A6021680A6802430A600120C1
:1023B00040346077002020770320F8BD0120CFE76C
:1023C00030B5002305E004885D005B1C4C539BB2D4
:1023D000801C9342F7D330BDF7B582B01F2102981D
:1023E000C906441801208004154684425DD2FEF7D8
:1023F0004BFB0298E70A4005860D01208002841BF2
:10240000A54200D82C460120F902C0060818012276
:10241000920227490090FFF7D3FF0020254907E0EB
:1024200032185300224AD25A8A4203D1401C80B249
:10243000A042F5D3A0422FD20098FEF753FA1E48CF
:10244000FEF78EFA1D4801690222914301610020C6
:1024500008E003994200895A82195300144A401C2B
:10246000D15280B2A042F4D30122920210490098C6
:1024700000F026F8A54216D0039960004118039198
:102480000299002640180290281B012485B2A4025C
:102490007F1CA542B7D8B5E70748FEF761FA224688
:1024A00003990298E4E7FEF7A7FA05B0F0BD000033
:1024B0005A2F0020FFFF000050C300000020024000
:1024C000F8B516460F460546002409E060003A5A62
:1024D000002329460120FEF799FA641CA4B2AD1C22
:1024E000B442F3D3F8BD704710B50B48C26920322F
:1024F000D0794107107C490FC3094407491CA40F38
:1025000000D00124927CC006C918C00F09194000F0
:102510008918081810BD0000B800002010B5054A41
:1025200053890B80002353810A880349FDF76FFE0E
:1025300010BD0000B8000020E4370020F8B5CC4CF6
:1025400001262046C069627801463746C94D4031B0
:10255000130001F040FB0CD0075290FBFAF9F8F79A
:10256000F6F5F4D02030007CC00601D54C2000E008
:102570000C200870E12048700222402000F0B2FFD9
:10258000052000F0BDF9FF210131BB48FDF758FEE1
:10259000B74838304068FEF72FF807460091FFF73C
:1025A000A3FFFEF729F80322FDF7FCFF3A46009B44
:1025B000FDF780FF0022B14BFDF714FF02F09AF8FF
:1025C0000022AF4BFDF75CFEFEF748F880B24108F1
:1025D000081820626062286820616061E069A021BB
:1025E00020304175352000F077FF0020A070E070AA
:1025F00020716071608102202FE100F0CDFE012882
:1026000005D1A078002802D1A7702868606100F089
:10261000B1FE012815D1A078002812D0E07800285A
:102620000FD1E77000F04AF96163206300F02AF9E6
:10263000A06200F057F9E071286820616061032012
:102640006070A078E17888430DD028686169401AED
:10265000616A884207D96770E069417B20200143A5
:102660000D2000F039FFE078A17808432179084374
:102670003FE00520F1E06189FF200130814201D96E
:102680000620EAE000F06CFE01282DD16089617916
:1026900008430CD1E0692030017CC90905D0744899
:1026A00001210A3000F080FE01E0807C60816189B8
:1026B00060790A1AE1692031497D8906890E8A42CA
:1026C0000BDD6D4A101800F06FFEE0696179203073
:1026D000407D8006800E401805E0D1B2664A101891
:1026E00000F062FEA07A607100F030FE012803D095
:1026F000207900282BD0B9E02868206161896079B1
:102700000A4602430425002A0ED1E0692030017CEC
:10271000C90905D0564801210A3000F045FE01E004
:10272000807C6081A17A6079534A091AC9B2101875
:1027300000F03AFEA07A60712771657096E092E031
:102740008DE05EE03DE026E019E00CE006E0286860
:102750002169401A216A88428BD887E00020607185
:102760006770022682E0002161716181417B202037
:1027700001430D2000F0B0FE6770032676E00021D3
:1027800061716181417B202001430D2000F0A4FE96
:10279000677006266AE00F702020487002224020F1
:1027A00000F0A0FEE069982120304175352000F04E
:1027B00093FE032000F0A4F8082060700020A071B0
:1027C00054E000F0E1FD012850D1E0692030007CA8
:1027D000C00904D0264801210C3000F0A2FEA089D7
:1027E000411E3F2900D920202070C1B2224800F0AC
:1027F00098FEA07921784018A0712868A06109206E
:102800002BE000F0ADFD002814D1A189A0790A1AAF
:1028100021788A4207DD184A101800F082FEA0795C
:102820002178401805E0D1B2134A101800F079FE63
:10283000207BA07100F08AFD012806D12868A061E4
:102840000A206070012000F05BF82868A169401A36
:102850007D21C900884209D90B20607006E0002064
:102860006070042602E00020607005263046F8BD46
:10287000B8000020AC000020E437002000408F406A
:102880000000F03F10B50B4C0222E1691B201B3108
:1028900000F03DFDE069017FC27E0802104340BAAE
:1028A000FDF7AAFE0022044BFDF79CFDFDF7B2FEEA
:1028B00010BD0000B800002080844E4010B5074CC9
:1028C0001120E169113100F01DFDE069407CFDF748
:1028D00093FE0022024BFDF785FD10BDB8000020DD
:1028E0000000E0BF10B5054C0C20E1690C3100F090
:1028F00009FDE069007B400910BD0000B800002020
:1029000070B50E4C0546E169002049784907490F2A
:1029100021728D4211D0032D00D10120617A8842AD
:1029200002D0607200F004FEE0694178C908C90075
:1029300029434170012000F0CFFD70BDB800002098
:102940000149487070470000B800002010B5054CE0
:102950000A46A18101460448FDF759FC0720607032
:1029600010BD0000B8000020E437002010B5054A73
:102970001278002A02D000F073F810BDFFF7CEFDE8
:1029800010BD0000B000002010B5094907480860DC
:102990000849086000F012F800F00EFD0649012019
:1029A000087000F01DFD00F069F810BD74370020BC
:1029B000D400002020010020B000002070B51F4886
:1029C00086B04269012149040A43426142690A40D2
:1029D0000592426989000A43426142690A400592B0
:1029E000426949100A434261406900240840059049
:1029F00001204103124D024601900294039400917C
:102A00002846FEF7FEF869462846FEF751F81020E2
:102A100009260146F606009001223046FEF7F1F83D
:102A200069463046FEF744F806480090694601942E
:102A30002846FEF73DF806B070BD000000100240C9
:102A400000040048071C000001498869C9697047F3
:102A50001001002001490420085670471001002091
:102A600010B5044BDA880A800021D9800249FDF7AD
:102A7000CEFB10BD10010020E438002070B51F4DC2
:102A80000020287000F06AFA1D4C6F22611C0120A2
:102A900000F03DFC2969202008736F22611C012091
:102AA00000F020FD2C462034206800F03FFBA07988
:102AB00000F0C6FBE07900F05BFA207A00F00AFB38
:102AC000607900F0A3FB607A00F06CFA0D4800F02A
:102AD000E1FB207E00F018FB012000F07BFA802053
:102AE00000F0C4FA012000F0D5FA0420205600F0CE
:102AF0003BFB012000F09AFA70BD0000100100209D
:102B000074370020FF030000F8B5FF4C0126207841
:102B1000254620350027030001F05DF80BAA075178
:102B200098F6F5F4F3AAF2F1AA00012000F07EFA7B
:102B300020699D214174112000F0CEFCE87A012823
:102B40002AD02069FF2120300171206920300179CD
:102B5000242000F0C1FC216902220846203047777A
:102B6000877740203D3100F0BDFCA87A012824D0B1
:102B70002069C17B41730D2000F0AEFC052000F000
:102B800055FAFF210131E148FDF75AFB68696061A0
:102B9000DF480068E06069E02169287B2422505406
:102BA0001C201C3100F0AEFB2069007F8006010E66
:102BB000D848405800F0BAFAC7E70620DFE700F02F
:102BC000C5FB012818D1D2480068E060E87A0128E6
:102BD0000CD121691C201C3100F094FB2069007F7E
:102BE0008006010ECB48405800F0A0FA4021122088
:102BF00000F072FC0320207000F0BCFB012819D10A
:102C0000C3480068E060E87A01280CD121691C20E3
:102C10001C3100F077FB2069007F8006010EBD4863
:102C2000405800F083FA0221122000F055FC00F019
:102C300087F96070A87A01281AD1B5480068E16860
:102C4000401A6169884213D9042010E021691220DA
:102C5000123100F057FB2069807C800609D52021C5
:102C6000122000F039FCA87A012800D00220207040
:102C700047E16946192000F045FB684600780106E7
:102C800005D5C043401C0006800E404200E080088D
:102C9000207121691A201A3100F034FB9E482968FE
:102CA0009E4E81429F489E4F205617D200280ADA36
:102CB000FDF78EFC064620690F46807EFDF79CFCE2
:102CC0000022994B16E02069807EFDF795FC324684
:102CD0003B46FDF787FB0022934B20E0002814DAE7
:102CE000FDF776FC064620690F46807EFDF784FCE2
:102CF00000228E4BFDF7C4FA32463B460FE0F2E06D
:102D0000D8E0D1E0ADE059E054E02069807EFDF7E5
:102D100073FC32463B46FDF765FB0022834BFDF713
:102D2000AFFAE161A061A87A012820D021691020C2
:102D3000103100F0E7FA687A01282ED021691320BB
:102D4000133100F0DFFA2069C17CE180017C41731E
:102D50000D2000F0C1FB2069C17C6C4800F024FB11
:102D6000A87A012800D0022020700226C9E020693C
:102D7000C17B41730D2000F0AFFB687A012808D0B9
:102D800021691320133100F0BDFA2069C17CE18074
:102D9000E3E7206920308178F9E720692221095C86
:102DA000E180017C41730D2000F096FB206920300A
:102DB0008178D2E7012020700326A2E0012000F0F4
:102DC00035F9E87A012839D02069F721417420309B
:102DD0000771206920300179242000F07DFB2069F3
:102DE000417C112000F078FB2069217A203081702D
:102DF000222000F071FB2069394687730E2000F015
:102E00006BFB2069817B41730D2000F065FB20691D
:102E1000203081783D4800F084FB20694122014642
:102E20002030427740228277022240203D3100F05C
:102E300059FB032000F0FAF8062018E72169F52075
:102E400048742A7B242042541C201C3100F05AFA7A
:102E50002069007F8006010E2E48405800F066F978
:102E6000B7E700F073FA012805D10821122000F01D
:102E700033FB0720207000F07DFA012841D1E87A69
:102E800001280CD121691C201C3100F03BFA20697B
:102E9000007F8006010E1F48405800F047F90221CC
:102EA000122000F019FB2CE0012000F0BFF8277081
:102EB000042626E0012000F0B9F82069FA214174C7
:102EC000112000F009FB21690222084620314F77CA
:102ED0008F7701463D31402000F004FB072000F0D1
:102EE000A5F80A20C3E600F04FFA012809D1042111
:102EF000122000F0F1FA00F04FFA012818D02770E4
:102F000007263046F8BD000010010020E4380020FC
:102F1000AC000020F4560008008F42331B9E5E294F
:102F2000CB10F13F04000000008064C000A063C02B
:102F30000121122000F0D0FA012020700826E0E7DD
:102F400010B5054C0C2021690C3100F0DBF920692B
:102F5000007B400910BD00001001002010B503489F
:102F6000016942203F3100F0CDF910BD1001002071
:102F700070B50A4D044629681D201D3100F0C2F9C4
:102F80002A68F121507F084061000843C1B251779F
:102F90001D2000F0A1FA0248C47170BD200100207C
:102FA0003001002070B5094D044629681D201D31EF
:102FB00000F0A8F92868417F49084900214341777A
:102FC0001D2000F089FA0248447270BD20010020E3
:102FD0003001002070B5094D0446296826202631AD
:102FE00000F090F92A68F720203291790140E00042
:102FF00001439171262000F06FFA70BD200100207E
:1030000070B5094D044629683120303100F07AF955
:103010002A682032107CC108C90021431174312074
:1030200000F05AFA70BD00002001002070B50E4C6F
:1030300005462169002049784907490FA1708D4252
:1030400011D0032D00D10120E178884202D0E07038
:1030500000F06EFA20694178C908C900294341701F
:10306000012000F039FA70BD1001002070B5084D44
:10307000044629680920093100F044F92868417A9A
:103080004906490E21434172092000F025FA70BD1E
:103090002001002070B50E4C054621684D204931B5
:1030A00000F030F921680920093100F02BF921687E
:1030B000487AC0090AD0002D02D087224920425404
:1030C0004031497A4D2000F007FA70BD8422F5E7BF
:1030D0002001002070B50A4D044629681E201E31CB
:1030E00000F010F92868FB22817F1140A2001143F3
:1030F00081771E2000F0F0F90248047270BD0000D4
:10310000200100203001002010B50446054821466A
:10311000006820308470222000F0DEF90248047636
:1031200010BD0000200100203001002010B50B4927
:103130000860FDF761FA0022094BFDF7BBF9FDF7C6
:103140008DFA0849020C09688A71020ACA7108726C
:1031500003220620891D00F0C5F910BD30010020B2
:1031600080844E402001002070B5234D044629681C
:103170000920093100F0C6F829684D20493100F0D6
:10318000C1F829687022487AC309002B26D0492348
:103190005D5C8723AB4303D0022C0DDA02240EE0E2
:1031A000052C01DA052402E0142C00DD1424104360
:1031B00000090001621F06E0112C00DD11241043FC
:1031C00000090001A21E1207120F10434872C1B27B
:1031D000092000F081F90948047170BD0023DB4328
:1031E0009C4201DA1C4602E00E2C00DD0E24104346
:1031F00000090001621CE6E72001002030010020E8
:1032000001490870704700001001002070B50A4D98
:10321000044629681D201D3100F074F82868220139
:10322000417F0907090F1143C9B241771D2000F002
:1032300053F90248447170BD200100203001002084
:1032400070B504460C2801D90C2405E0062C01D2E7
:10325000062418E0062C16D00320FFF7D1FE0B4DF4
:103260001E2029681E3100F04DF828682201817F58
:103270000907090F1143C9B281771E2000F02CF90C
:103280000348847170BD0520E7E70000200100209D
:103290003001002070B50B4D0446296802221E2023
:1032A0001E3100F034F82968A205887F920F80084B
:1032B000800010438877CC7702221E201E3100F058
:1032C00011F970BD2001002010B5054C0A4621817E
:1032D00001460448FCF79BFF0520207010BD00004C
:1032E00010010020E438002010B5054800780028BF
:1032F00002D0FFF709FC10BDFFF720F910BD000058
:10330000B000002010B5012200F001F810BDF8B5A2
:10331000092715460E460446FF06002210213846AE
:10332000FDF76FFC6006400E00F003F9002405E095
:10333000002000F0FEF83055641CE4B2AC42F7D334
:10334000012210213846FDF75CFCF8BD10B50121C3
:1033500009030248FDF750FC10BD000000040048BE
:1033600010B50121C9020248FDF746FC10BD00005E
:103370000004004810B5012189020248FDF73CFC19
:1033800010BD00000004004810B504210148FDF7FD
:1033900033FC10BD0004004810B502210148FDF7C0
:1033A0002BFC10BD000400480A4610B50146002061
:1033B000FFF7ADFF10BD000010B5012000F05EF872
:1033C000064C206821688142FCD0002000F056F8AD
:1033D00020682168091A0629FBD310BDAC00002023
:1033E00070B51C494A78824233D048701A4C1B4D44
:1033F000087000281AD00020FFF718FE20688022ED
:10340000417811434170012000F066F80120FFF778
:103410000DFE21680022084620314A778A7701464E
:1034200002223D31402000F05DF80DE00020FFF762
:10343000FDFD206841784906490E4170012000F0E9
:103440004BF80120FFF7F2FD6F22691C0120FFF706
:103450005EFF70BDB0000020200100207437002006
:1034600010B505490978002902D0FFF7C9FE10BD43
:10347000FFF766FA10BD0000B0000020012110B572
:103480004903054B012804D001221846FDF7B9FB7A
:1034900010BD0022F9E700000004004810B5054AFD
:1034A0001278002A02D0FFF70FFF10BDFFF74EFA87
:1034B00010BD0000B000002010B5064800780028BC
:1034C00003D00120FFF79CFE10BD0120FFF738FA62
:1034D00010BD0000B000002013B5012201A900F0CA
:1034E00001F81CBDF8B5092715460E460446FF062F
:1034F000002210213846FDF784FB20468021084336
:1035000000F017F8002404E0305D00F012F8641CAD
:10351000E4B2AC42F8D3012210213846FDF771FB2A
:10352000F8BD0A4610B501460020FFF7DBFF10BDCD
:10353000704710B501F02CF910BD000010B5FCF774
:10354000D9FD044601F016FF002803D001200349ED
:10355000000748602046FCF7D1FD10BD00ED00E0FB
:1035600070B594B030216846FCF76AFE00240E94D2
:103570001020139404900225C0020D940F9409901A
:1035800012940126009540010C94109403960A9021
:10359000119408950B946846FDF72AFD07200C90BE
:1035A0000E9401210D950F940CA8FDF735FC10A881
:1035B00010961294FDF7BCFB14B070BD704700006C
:1035C00010B50448FEF7BCF803480168491C0160C7
:1035D00010BD000008050020AC000020F0B5026816
:1035E0001A4B1B4C984201D0A04203D17025AA432C
:1035F0004D682A43174D184E184F98420AD0A042E2
:1036000008D0174CA04205D0A84203D0B04201D048
:10361000B84205D11446032212029443CA682243D9
:103620008024A2434C69224302608A68C2620A680D
:103630008262984205D0A84203D0B04201D0B8427D
:1036400001D10969016301214161F0BD002C0140F4
:103650000004004000400140004401400048014097
:103660000020004010B5818CC90707D001684A6866
:1036700001235B049A43836A1A434A60818C890759
:1036800007D501684A6801231B049A43C36A1A4399
:103690004A60818C490707D501684A6801239B0469
:1036A0009A43036B1A434A60818C090707D5016866
:1036B0004A680123DB039A43436B1A434A60818CB7
:1036C000C90607D50268916801231B039943836BE0
:1036D00019439160818C890607D501688A680123A6
:1036E0005B039A43C36B1A438A60818C490612D5E7
:1036F00003685A6801210905046C8A4322435A6011
:10370000026C8A4207D10268516803235B05994322
:10371000436C19435160818C090607D501684A68DA
:103720000123DB04806C9A4302434A6010BD000011
:10373000F8B500260446C667FDF76AFA0546206814
:103740000068124F000709D501212B4600224905C8
:103750002046009700F0EEF800280DD120680068A0
:1037600040070BD501212B460022890520460097F2
:1037700000F0E0F8002801D00320F8BD20206067A9
:10378000A067603426740020F8BD0000FFFFFF0131
:1037900010B5406A0022014640314A834A82FEF752
:1037A0008EF810BD01680A68FF2321339A430A602E
:1037B00001688A68520852008A60202181670021CE
:1037C0000166704770B5044680682169E269084364
:1037D000616900251143084321680A684A4B1A4071
:1037E00002430A6021684868032212039043E2689A
:1037F00010434860A169206A2268084391680B233E
:103800001B0299430143916040492068884210D1CE
:103810003F48006B8007800F1DD0012805D002288B
:1038200005D0032816D1022015E0042013E008205B
:1038300011E0384988420BD03749884208D03749CF
:10384000884205D03649884202D03649884201D1A3
:10385000002000E010200122E169D203324E9142A3
:1038600028D1002806D0022807D0042817D008281D
:1038700044D11AE0FDF770FB13E061682B4A480859
:103880008018FCF76DFC80B201461039B14235D882
:103890002549491C01400007400F084321E0FDF77E
:1038A0006BFB616840004A08EAE76168012248084A
:1038B0001204E5E7002806D0022807D0042813D018
:1038C00008281BD116E0FDF747FB0FE06168184A96
:1038D000480811E0FCF744FC80B201461039B142BF
:1038E0000CD82168C8600AE0FDF746FB61684A0809
:1038F0001018EFE7616848088018EBE70125002001
:1039000020666066284670BDF369FFEF003801400D
:10391000001002400044004000480040004C0040BD
:103920000050004000140140EFFF00000024F400AC
:1039300000127A00FFB581B005460F460446603597
:103940000A9E38E0701C36D0FDF762F90499401ADF
:10395000B04221D8002E1FD02068016849072AD51F
:10396000C069C043000526D401202168C002086256
:1039700020680168FF22A1329143016020688168BC
:1039800049084900816020206067A067E067002047
:103990002874032005B0F0BD20680168FF22A13221
:1039A00091430160206881684908490081602020B6
:1039B0006067A067EBE72068C1693846884305D097
:1039C000002103988142BDD00020E3E70121F8E700
:1039D000642000F0B9FBFBE708B509480068C1693D
:1039E000C943890608D4808C6946087005480023BD
:1039F0001A46006801F06CFB0148FDF761FF08BD45
:103A0000080400201C00002008B509480068C169AE
:103A1000C943890608D4808C69460870054800238C
:103A20001A46006801F054FB0148FDF749FF08BD44
:103A300088040020140000200A4610B50146024BFD
:103A40000248FEF77DF810BDFFFF0000880400204B
:103A500086B014216846FCF7F3FB0027124EFF43A3
:103A60006D46294601243A46F06901F077FB0128AA
:103A700016D12919641CE4B20522F06901F06EFB2D
:103A80000028F6D12855641EE4B2694607A000F06C
:103A900063F8684600F028FF21466846FCF7D0FB33
:103AA0000A2000F051FBDCE7000000205B75736525
:103AB000725D696E666F3A526563656976652073FB
:103AC000657475702073797374656D20636F6D6DA7
:103AD000616E64207C2025730D0A0000FFB083B066
:103AE000FF21013142A8FCF7ABFB002040A98880F0
:103AF000174E42AD01242946A21E706901F02EFB2B
:103B00000128F7D12919641CE4B20522706901F07B
:103B100025FB0028F6D10F4F002208213846FDF77B
:103B200070F800202855641EE4B2224642A9684677
:103B3000FCF76DFB40A80480012300226946B069B0
:103B400001F03AFA012208213846FDF75AF8D1E788
:103B500000000020000400480FB410B503A9044B76
:103B6000044A029800F076F810BC08BC04B018476C
:103B7000C94000084C0100202021020C01D0102176
:103B80001046020A01D010460839020901D0104639
:103B9000091F820801D01046891E420801D0881EE4
:103BA0007047081A7047F8B5040C8BB2264682B2EB
:103BB0005E430D0C1046370C584336048019002123
:103BC000794116466E43370C3604801979412646F2
:103BD0006E438919F8BD30B47446641E2578641CA0
:103BE000AB4200D21D46635D5B00E31830BC184752
:103BF0008307FF22DB0E9A408907090E99400028AF
:103C000008DB830809489B001B1818689043084389
:103C1000186070470007000F0838830804489B00AD
:103C20001B18D86990430843D861704700E400E04E
:103C300000ED00E002E008C8121F08C1002AFAD116
:103C400070477047002001E001C1121F002AFBD11C
:103C500070470000FFB591B00F460546002606E00C
:103C600025280AD0149A139990476D1C761C287841
:103C70000028F5D1304615B0F0BD00240094012194
:103C8000F34A029400E004436D1C2B780846203B65
:103C900098401042F7D128782A280ED0022128789F
:103CA0000246303A092A15D8009A0A235A43303A74
:103CB00080180C436D1C0090F1E701CF00900028A4
:103CC00005DA01204003044300984042009002209E
:103CD00004436D1C28782E2815D1042004436878ED
:103CE0006D1C2A280AD101CF6D1C02900BE00299AD
:103CF0000A225143303940186D1C02902878014641
:103D000030390929F3D928786C2810D006DC4C28E2
:103D10001AD068280ED06A2817D104E0742813D06E
:103D20007A2812D110E00120400504430CE0012163
:103D3000090501E0032109050C436978814203D19B
:103D40000120000524186D1C6D1C287803906E2836
:103D50001ED00CDC632831D004DC00288AD058281F
:103D600011D1B2E064287BD069280CD178E07328A7
:103D70002DD004DC6F2870D0702804D1A7E07528FE
:103D80006CD078286BD0149A13999047761C62E017
:103D90006002400F022807D003280AD004283868A0
:103DA0000AD006603F1D56E03868F1170660416092
:103DB000F8E738680680F5E70670F3E73878694673
:103DC00008740020487404A80390012003E03868B8
:103DD00003900020C0433F1D61070FD5002101E083
:103DE0000199491C029A0191914213DA8142F7DB51
:103DF000019A0399895C0029F2D10BE0002101E0CE
:103E00000199491C01918142FADB019A0399895C6D
:103E10000029F5D101990098139A401A0090214683
:103E2000149B00F03BF901998019461807E00398AC
:103E300003990078491C0391149A139990470198AB
:103E4000401E0190401CF2D12146149B139A009809
:103E500000F014F986196D1C09E741E033E034E005
:103E60000A200021049005916002410F022905D02B
:103E700001CFC2179446032905D007E0FF1DFF08B4
:103E8000FF0003CF06E000B2C2179446042902D116
:103E900040B2C1178C4600226146944506DA0A46B4
:103EA0000021404291418C462D2102E0210504D59C
:103EB0002B216A461176012103E0E10701D0202180
:103EC000F7E7019154E00A200BE0102009E01020F0
:103ED000049000210420044308200591029003E08F
:103EE00008200021059104906002410F022905D0AD
:103EF00001CF00229446032906D006E0FF1DFF08EB
:103F0000FF0003CF8C4603E080B2042900D1C0B289
:103F10000021019121072BD50399702906D0049A1D
:103F20001021059B4A401A4305D00EE040216A4605
:103F30001176012108E06146014306D030216A462E
:103F400011760399517602210191049A0821059B6B
:103F50004A401A430CD16146014301D1610707D59C
:103F600030216A461176012101910299491E029180
:103F70000399582904D037A103910FA90F910DE09F
:103F800039A1F9E76146059B049AFCF7FFF8039B0A
:103F90008C469B5C0F9A521E0F9213706146014330
:103FA000F0D10F9807A9081A20300390600704D5B4
:103FB000012000048443029801E00120029003994B
:103FC000884201DD401A00E000204118029001986B
:103FD00009180098401A0090E00306D42146149B6B
:103FE000139A009800F05AF886190020049008E00F
:103FF00006A9085C149A139990470498401C761CF3
:10400000049001998842F3DBE0030CD52146149B10
:10401000139A009800F042F8861904E0149A3020B0
:1040200013999047761C0299481E02900029F5DCEE
:1040300008E00F980F990078491C0F91149A139972
:104040009047761C0399481E03900029F1DCFBE69B
:10405000092801003031323334353637383961625E
:104060006364656600000000303132333435363722
:10407000383941424344454600000000F8B5044643
:1040800000251E461746880404D405E03946202042
:10409000B0476D1C641EF9D52846F8BDFFB504462F
:1040A000002581B01E46C80301D5302700E0202737
:1040B000880404D505E038460399B0476D1C641E9A
:1040C000F9D5284605B0F0BD0449CA695206FCD5A9
:1040D000024AC1B22032118170470000003801400D
:1040E000EFF30580002800D001207047FCF79EFD0B
:1040F000FFF736FAFDF766FFFDF7FCFFFEF716F84F
:10410000FDF7D2FF03A0FFF727FDFDF7FDFE00F04E
:1041100023F8FEE75B757365725D696E666F3A4CF6
:104120006F526120486F73742056657273696F6EA9
:1041300020402056312E300D0A000000014600209C
:10414000842900D0C81C704710B5002800D1012078
:1041500000F08CFD002010BD10B500F0EDFD00203A
:1041600010BD38B5826804684168002A08D0C36869
:10417000002B05D000200090204600F0C7FE38BD7F
:104180000022204600F0A4FE38BD10B50446FFF71B
:10419000A7FF0028204602D000F063FB10BD00F00E
:1041A00054FB10BD7FB50D46044641690820205ED2
:1041B000002911D0A16900290ED0FFF7BFFF6B467F
:1041C000A269616907C32B4622692168606801F012
:1041D0009EF8039004B070BDFFF7B0FF03A90191F2
:1041E0000090208A2B4682B22168606801F066F850
:1041F000012801D00020EDE70398EBE7F8B5134C58
:104200000F46666905462068001D00F00BFB681C20
:1042100007D1002F05D021680D48091D00F058FB7B
:10422000F8BD2068751945602168B54204D2A068C0
:10423000091D00F035FBF8BD6068091D00F030FB7A
:10424000206B8542F7D22563F8BD000030000020C6
:1042500044060020F8B5054600F0C0FC294C206952
:10426000401C20612068284F002803D0E069002806
:1042700027D02CE025602069012828D100261420B1
:104280007043C01900F0FEFA761C072EF7D31E48C3
:104290008C3000F0F7FA1C48A03000F0F3FA1A480E
:1042A000B43000F0EFFA1848C83000F0EBFA1648C6
:1042B000DC3000F0E7FA14488C3060601430A06005
:1042C00005E02068E96AC06A884200D82560E06A93
:1042D000401CE062E86AA169884200D9A06114210B
:1042E0004843C019291D00F0F3FA00F083FCE0698F
:1042F000002806D02068E96AC06A884201D200F02E
:10430000A9FCF8BD300000206805002010B5026C43
:104310000C46002A0CD0C1688B18C36041688B42E0
:1043200001D2194601E00168C1602046FBF76FFF2A
:1043300010BDF8B5856B174604460026026C002AAE
:1043400011D0002F19D0E068FBF761FFE168206C05
:10435000091AE1602268914202D26168081AE0609D
:10436000022F17D019E02068002816D1606801F0EC
:104370005FF80646002060600FE0A068FBF747FF8B
:10438000216CA0684018A0606168884205D320684D
:10439000A06002E0002D00D06D1E6D1CA5633046AC
:1043A000F8BD10B504464030407C002805D00128F7
:1043B00006D0022807D072B6FEE7206B00F028FC7A
:1043C000204600F025FC10BD05210E48C902420719
:1043D00005D0C01DC0080B4AC000821A891A0A4ABB
:1043E0000023411809C20839C908C900183A1160E8
:1043F0004B600B600B1A0AC093600120C00753602A
:10440000D0607047580600207C0000200F4E104CF2
:104410003746C83F11E000F0E1FBF068C568281D91
:1044200000F000FA2069401E2061E068401EE06054
:1044300000F0E0FB2846FFF7B4FFE0680028EAD16F
:1044400038680128F9D900F005FCF6E730060020AD
:104450003000002010B503460298002906D0026003
:10446000C3630164012100F071FD10BD0060F7E736
:10447000FFB581B00C9C9000236B001F1818C60874
:104480000A9DF600700701D072B6FEE723180A5C99
:1044900020331A750A5C002A02D0401C1028F5D37C
:1044A0002046403000270090C770072D00D3062516
:1044B000E562A764201D656400F0EFF9204618301E
:1044C00000F0EBF924610720401B6462A061E764FF
:1044D000009807743046049A019900F0FBF82060B8
:1044E0000B98002800D0046005B0F0BD30B511492C
:1044F00000E011460A688242FBD34B685C18844294
:1045000003D1406818184860084643681C18944254
:1045100009D1084C103C2468A24209D052689A186C
:1045200042600A6812680260814200D0086030BDB3
:104530000460F9E77C00002010B5044600F04EFB53
:10454000A06B002804D0002400F054FB204610BDCE
:104550000124F9E7064841680968002905D0416847
:10456000C968C9684968016370470021C943FAE70F
:104570003000002003480068401C72B600D0FEE7FF
:10458000FEE7000084000020002100280BD0084B2B
:1045900042699A420AD1806A1A46283A904205D066
:1045A000002802D002E072B6FEE7012108467047FB
:1045B00044060020F8B5044600F010FB25464035BF
:1045C0000526AE57274624370BE0606A00280AD03C
:1045D000384600F061FF002801D000F067FB761E2E
:1045E00076B2002EF1DC0027FF436F7100F002FB72
:1045F00000F0F4FA0426AE572046103000900BE08D
:10460000206900280AD0009800F046FF002801D059
:1046100000F04CFB761E76B2002EF1DC2F7100F01C
:10462000E9FAF8BDF8B50546002700F0F5FB284E7D
:104630003068002801D1FFF7C7FEF06805423FD17E
:10464000002D3DD00835680708D06807400F0821C5
:10465000081A4519680701D072B6FEE7002D2FD061
:10466000706885422CD81A48103001460C6801E069
:1046700020460C466168A94202D221680029F7D180
:1046800031688C421CD00768216801606068083777
:10469000411B102908D96019420701D072B6FEE704
:1046A00041606560FFF722FF61687068401A7060C2
:1046B000B268904200D2B060F0680143002003C4A9
:1046C00000F01CFF780701D072B6FEE73846F8BD4F
:1046D0006C00002010B50124031F24061C601B1F62
:1046E0001960191F024B0B60143940380A6010BD65
:1046F00075450008F0B513B406460199FCF762F859
:1047000004460D4602460B4630460199FBF75CFE17
:10471000064601981B4B0F4600280CDA0022304653
:10472000FBF7BAFF0CD90022174B30463946FCF78D
:1047300087F81DD214E000223046FBF7ADFF08D207
:104740000022124B20462946FBF73EFE04460D464A
:104750000EE000220C4B30463946FCF771F807D8C2
:1047600000220A4B20462946FBF78AFD04460D46E7
:10477000019A69004908D20FD2072046114303B0BD
:10478000F0BD00000000E0BF0000E03F0000F03F8F
:1047900001B582B00021684601717D20C000009003
:1047A000012301AA02A90348FCF770FE68460079BC
:1047B0000EBD0000A403002030B501782D2906D0DD
:1047C000002400210B4602782E2A03D004E00124A5
:1047D000401CF6E74278401C1546303D092D08D8AC
:1047E0000A25694389185B1CDBB2401C30390F2B4A
:1047F000E9D3002C01D0484230BD084630BD10B589
:104800000478002C0BD0401C8C42F9D102E01970C6
:10481000401C5B1C0178002901D09142F7D1002097
:10482000187010BD4368826801699A6083684268A5
:104830005A604A68824201D182684A60002202615D
:104840000868401E08600868704710B5040006D06C
:1048500000F0C4F9A46B00F0CDF9204610BD72B68B
:10486000FEE7002801D0806B704772B6FEE70000BB
:10487000034B036018465430086080201060704776
:10488000500100200146083100224160D243C1603E
:104890008260016100210160704700210161704761
:1048A00030B50B685A1C02D00246083202E0026999
:1048B00004E02246546825689D42FAD953684B604B
:1048C00099608A60516008610168491C016030BDCF
:1048D00042684A6093688B60936859609160086190
:1048E0000168491C0160704730B585B00446FDF78A
:1048F000F5FA504D0300FFF76EF90998061D344B89
:104900009862987998004CA0FFF726F96B46002230
:104910003D212046FFF773FF6846FFF74DFF84B245
:104920004C480F22048001462846FDF755FD2146DC
:1049300049A071E04EA0FFF70FF96B4600223D2120
:104940002046FFF75CFF6846FFF736FF84B2414818
:104950000F22448001462846FDF73EFD21464CA02B
:104960005AE052A0FFF7F8F86B4600223D2120469E
:10497000FFF745FF6846FFF71FFF84B235480F2257
:10498000848001462846FDF727FD21464EA043E0DE
:1049900053A0FFF7E1F86B4600223D212046FFF7C8
:1049A0002EFF6846FFF708FF84B22A480F22C48012
:1049B00001462846FDF710FD214650A02CE055A0E9
:1049C000FFF7CAF86B4600223D212046FFF717FF8C
:1049D0006846FFF7F1FE84B21E480F22448101466B
:1049E0002846FDF7F9FC214652A015E058A0FFF734
:1049F000B3F86B4600223D212046FFF700FF6846D2
:104A0000FFF7DAFE84B213480F22C481014628461C
:104A1000FDF7E2FC214656A0FFF79EF85BA0FFF7EA
:104A20009BF8FCF777F905B030BD64A0FFF794F868
:104A3000F9E7000000F000085B757365725D696E50
:104A4000666F3A636D642069732052465F43480D78
:104A50000A000000880000205B757365725D696E56
:104A6000666F3A52465F43483D25640D0A000000D8
:104A70005B757365725D696E666F3A636D6420691C
:104A8000732052465F504F5745520D0A00000000F8
:104A90005B757365725D696E666F3A52465F504F23
:104AA0005745523D25640D0A000000005B75736593
:104AB000725D696E666F3A636D6420697320524659
:104AC0005F42570D0A0000005B757365725D696E89
:104AD000666F3A52465F42573D25640D0A0000005A
:104AE0005B757365725D696E666F3A636D642069AC
:104AF000732052465F53460D0A0000005B757365D4
:104B0000725D696E666F3A52465F53463D25640D8D
:104B10000A0000005B757365725D696E666F3A63CB
:104B20006D642069732052465F52584F55540D0AE8
:104B3000000000005B757365725D696E666F3A52C6
:104B4000465F52584F55543D25640D0A0000000041
:104B50005B757365725D696E666F3A636D6420693B
:104B600073204E45545F414444520D0A000000003A
:104B70005B757365725D696E666F3A4E45545F4151
:104B80004444523D25640D0A000000005B757365C6
:104B9000725D696E666F3A536574757020636F6DF0
:104BA000706C6574652073797374656D20726573BC
:104BB0007461727420210D0A000000005B7573653A
:104BC000725D696E666F3A636D64206973206E6F03
:104BD00066696E6420210D0A0000000072B6044868
:104BE0000168491C0160BFF34F8FBFF36F8F70479F
:104BF0008400002005490868002804D0401E086091
:104C000000D162B6704772B6FEE700008400002053
:104C100070B500281AD004460D4D083C6068E9685C
:104C2000084201D172B6FEE72268002A01D072B6AE
:104C3000FEE78843606000F0EFF86068696840183C
:104C400068602046FFF752FC00F058FC70BD000081
:104C50006C0000200120044900074860BFF34F8F1B
:104C6000BFF36F8F7047000000ED00E010B5020049
:104C70000FD00948806B002801D072B6FEE700F023
:104C8000CBF800211046FFF7B9FA00F037FC0028F6
:104C900001D1FFF7DFFF10BD3000002002498A6A12
:104CA00002604969416070473000002001490120DD
:104CB000486270473000002010B50C46002809D02B
:104CC000054909681831FFF7EBFD01212046FFF780
:104CD00095FA10BD72B6FEE73000002070B50400F2
:104CE00023D0134D286884421ED0FFF777FF20465B
:104CF000FFF74AFC002815D0201DFFF793FDE06A5E
:104D0000A969884200D9A86114214843094940187B
:104D1000211DFFF7DDFDE06A2968C96A884201D3D9
:104D2000FFF798FFFFF766FF70BD72B6FEE7000061
:104D3000300000206805002010B586B000240394E0
:104D400005AA04A903A80494FFF792FD0499039807
:104D5000009401910290002309A10B48059A00F0EC
:104D6000D6FA0A490028486308D072B60020C0432A
:104D700008630120C8614C6100F082F806B010BDE4
:104D800049444C45000000000D440008300000205C
:104D900070B50446FFF722FF1D4D002C00D12C6892
:104DA000201DFFF73FFDA06A002803D020461830E1
:104DB000FFF738FD211D1748FFF78AFD20464030D8
:104DC000017C0026012900D10674FFF713FFE86972
:104DD000002805D0FFF702FFFFF7BCFBFFF70AFF33
:104DE0002868844209D1E869002807D0A86B002808
:104DF00001D072B6FEE7FFF72DFF70BD05480068D1
:104E00002969884201D12E6070BD00F00DF870BD97
:104E100030000020440600200248816B491C816359
:104E2000704700003000002010B51348816B002946
:104E300002D00121416210BD0021416281690F4A07
:104E400002E0002915D0491E14234B43D358002BF0
:104E5000F7D014234B439A18536814465B68083400
:104E60005360A34201D15B685360DA6802608161DC
:104E700010BD72B6FEE7000030000020680500207B
:104E800070B50F48016AFF22120411430162016AE2
:104E90001202114301620B4C00252561A5610A48ED
:104EA0007D21C9000068FBF75BF9401E60610720A7
:104EB000206106480560FBF709F9002070BD00007D
:104EC00000ED00E000E000E02C0000208400002065
:104ED000F8B517460E46050014D0002E14D07043C6
:104EE0004830FFF79FFB04000AD0002146200155FF
:104EF000224648323B46314628460094FFF7AAFA3C
:104F00002046F8BD72B6FEE70020E9E7F8B5069D39
:104F1000002806D0002B06D0002A08D0002904D093
:104F200009E072B6FEE772B6FEE772B6FEE7002948
:104F300001D072B6FEE748241C46012640339E711C
:104F40002B460094FFF786FA2046F8BD70B50D4653
:104F5000040025D0FFF742FE216CE06B4843216836
:104F6000411861600021A1632168A160E06B216CA0
:104F7000401E484321684118E1600021C943204692
:104F80004030017141713038002D0BD0FFF77AFCB1
:104F900020462430FFF776FCFFF72CFE012070BD81
:104FA00072B6FEE721690029F6D000F075FA0028F4
:104FB000F2D0FFF74FFEEFE7FFB5002683B01D46A6
:104FC000040003D00498002802D006E072B6FEE781
:104FD000206C002801D072B6FEE7022D04D1E06BF0
:104FE000012801D072B6FEE700F0B4F900270028CE
:104FF00004D10598002801D072B6FEE7FFF7EEFD58
:10500000A06BE16B884207D3022D05D005980028DC
:1050100017D0002E18D01BE02A4620460499FFF72F
:1050200088F9616A002903D02046243000F034FA60
:10503000002801D0FFF70EFEFFF7DCFD012007B0CE
:10504000F0BDFFF7D7FD22E06846FFF727FE0126F7
:10505000FFF7D0FDFFF7E0FEFFF7C0FD2046403030
:1050600004214156491C00D1077105214156491CB4
:1050700000D14771FFF7BEFD05A9684600F0F0F8C2
:10508000002806D02046FFF795FA00F037FA0020F6
:10509000D5E7FFF7A3FDA06BE16B884210D1FFF7C6
:1050A000A9FD204610300599FFF706FE2046FFF7C0
:1050B00081FA00F023FA0028A0D1FFF7CBFD9DE78D
:1050C000FFF798FD2046FFF775FA00F017FA95E70D
:1050D000FFB581B01E46040003D00298002802D01C
:1050E00006E072B6FEE7206C002801D072B6FEE73B
:1050F000022E04D1E06B012801D072B6FEE7FAF768
:10510000F9FF0090A06BE16B884208D3022E06D015
:1051100000240098FAF7F2FF204605B0F0BD2046C3
:105120004030052545570746324620460299FFF78D
:1051300000F9681C03D06D1C7D710124E9E7606AE9
:105140000028FAD02046243000F0A6F90028F4D038
:1051500003980028F1D001210160EEE7F7B50025A2
:1051600082B0040003D00398002802D006E072B693
:10517000FEE7206C002801D072B6FEE700F0EAF8E6
:105180000026002804D10498002801D072B6FEE75A
:10519000FFF724FDA76B002F15D020460399FFF7DA
:1051A000B5F87F1EA7632069002807D0204610307D
:1051B00000F072F9002801D0FFF74CFDFFF71AFD4F
:1051C000012005B0F0BD0498002802D0002D03D0C6
:1051D00006E0FFF70FFD27E06846FFF75FFD0125BA
:1051E000FFF708FDFFF718FEFFF7F8FC20464030F8
:1051F00004214156491C00D1067105214156491C24
:1052000000D14671FFF7F6FC04A9684600F028F8C3
:10521000002820460AD0FFF7CDF900F06FF92046AC
:10522000FFF78AF90028B3D00020CAE7FFF784F916
:1052300000280ED0204624300499FFF73DFD20467B
:10524000FFF7B8F900F05AF90028A1D1FFF702FDE5
:105250009EE72046FFF7AEF900F050F998E700000E
:10526000F8B50C46050012D0002C12D0FFF7B6FCA2
:10527000114B5A696E682068911B471C0BD02F6830
:105280009B6A9F420CD096420AD8012404E072B671
:10529000FEE772B6FEE70024FFF7ACFC2046F8BD3F
:1052A000884205D9401A20602846FFF7F7FCF2E74C
:1052B00000202060E9E7000030000020FFB585B045
:1052C000164690000F9FFFF7ADF905001CD0542043
:1052D000FFF7A8F9040014D00020512125630855D8
:1052E0000E9900910390019702943246089B06990B
:1052F0000598FFF7BDF82046FEF7ACFF012009B086
:10530000F0BD2846FFF784FC0020C043F7E7F0B566
:1053100085B007460B9D0C9C0A98002D15D0002CDB
:1053200015D054262563022551263555002504AE97
:1053300000900196039502943846FFF799F82046AD
:10534000FEF788FF049805B0F0BD72B6FEE772B6AE
:10535000FEE700000648C169002904D0806B0028E0
:1053600003D00020704701207047022070470000E2
:1053700030000020F8B52C4C0027A06B002808D086
:10538000206A401C2062606A002800D0012738464D
:10539000F8BD6669761C66610ED1606800680028F9
:1053A00001D072B6FEE76068A1686160A060A06A83
:1053B000401CA062FFF7CEF8206B86420AD36068DB
:1053C0000068002810D06068C068C56868688642B8
:1053D0000DD2206320681421C06A4843134908583D
:1053E0000128D0D90127CEE70020C043F1E7281DCE
:1053F000FFF718FAA86A002803D028461830FFF7EC
:1054000011FAE86AA169884200D9A06114214843D1
:1054100006494018291DFFF75BFAE86A2168C96A46
:105420008842CCD30127CAE730000020680500205D
:1054300070B500210446002828D0154D2868844204
:1054400001D072B6FEE7A06C002808D0401EA06410
:10545000636CE26A9A4219D0002802D016E072B654
:10546000FEE7201DFFF7DEF9606C0721E062081AF5
:10547000A061E06AA969884200D9A8611421484363
:1054800004494018211DFFF723FA0121084670BD89
:10549000300000206805002070B5C068C468002C8A
:1054A0000BD0204618300646FFF7BCF9114DA86B0B
:1054B000002804D0314610480FE072B6FEE7201DE8
:1054C000FFF7B0F9E06AA969884200D9A861142100
:1054D00048430949B4394018211DFFF7F9F9E06A3A
:1054E0002968C96A884202D90120686270BD00201B
:1054F00070BD0000300000201C060020F8B5284CCC
:105500000025A06B2E46002808D0FFF767FBA06B94
:10551000401EA063A06B002802D03DE072B6FEE7FB
:105520002169204F00291DD136E0F868C56828465A
:105530001830FFF777F9281DFFF774F9E86AA169B9
:10554000884200D9A061142148431649B439401853
:10555000291DFFF7BDF9E86A2168C96A884201D3AD
:105560000120606238680028DFD1002D01D0FEF7ED
:10557000F1FF256A002D09D00127FFF7FBFE002867
:1055800000D067626D1EF8D100202062606A00289A
:1055900002D00126FFF75EFBFFF72CFB3046F8BD7B
:1055A000300000201C060020000100000100000067
:1055B00000000000000000000A00000002010000DE
:1055C00000000000000000001000000001000000CA
:1055D000000000000000000034580008D139000825
:1055E000000000000000000080000000000000003B
:1055F0000000000028580008DD3A00080000000004
:105600000000000000020000000000000000000098
:1056100048580008151C00080000000000000000A9
:105620008000000000000000000000003C5800085E
:105630004D1E000800000000000000008000000077
:1056400000000000000000001C580008513A00084B
:1056500000000000000000008000000000000000CA
:105660000000000000000000000000000102030430
:105670000607080900000000010203048058000822
:10568000010000009058000802000000B458000813
:10569000030000007858000804000000A858000823
:1056A000050000009C58000806000000885800080B
:1056B000070000006C58000808000000605800084F
:1056C0000200000054580008030000000000000021
:1056D00000000000000000000000000000000000CA
:1056E00000000000000000000000000000000000BA
:1056F0000000000020AEA036E07D0B37A017083672
:1057000060F0AF3660F0AF36403D2E36C0AFD235D8
:10571000000D993620A5633680A3313740612237CA
:1057200060DE353640466B36A032BF36A032BF361B
:10573000A00ECB35E0625436A0443937A00ECB35ED
:10574000809AF436001F1337E050DA3540466B3646
:10575000809AF43680A33137807F3D360016D636E6
:10576000A03BFC36C0C14C36809AF43660DE35363C
:1057700080A33137809AF4368091B73660022A3799
:1057800000FB1E3660F0AF36A0443937209C263629
:10579000000D993660D5F835000D9936C0AFD23579
:1057A0004034F135C0CA893640466B36C0B80F3632
:1057B000807F3D36A044393760022A37C0C14C365D
:1057C0005B757365725D696E666F3A52465F4348FA
:1057D0003D25647C52465F504F5745523D25647CC1
:1057E00052465F42573D25647C52465F53463D25F5
:1057F000647C52465F54584F55543D25647C524654
:105800005F52584F55543D25647C52465F4E455477
:10581000414444523D25640D0A00000055736172F5
:1058200074315461736B000055736172743254614A
:10583000736B00005549445461736B004C6F5261A7
:105840005461736B000000004C6F526150726F63C3
:105850006573730041542B53504545443D0000008F
:1058600041542B424155443D0000000041542B4E11
:105870004554414444523D0041542B524653460046
:1058800041542B524643480041542B5246504C0041
:1058900041542B5246504F574552000041542B5211
:1058A0004652584F5554000041542B524654584FBD
:1058B0005554000041542B5246425700DC58000812
:1058C00000000020500100008C0800083459000836
:1058D00050010020983C0000443C000801203201A7
:1058E00082040355127A1AAA01121912141207120D
:1058F0000C16B80BB80B801A080E011E5A209F2AEE
:1059000001A1012B278025DB3380252350C3296487
:1059100014A086011CF04902490A23FF52180840CE
:105920000ECF1914070725120132044BB80B04726D
:0459300080000000F3
:04000005080000B936
:00000001FF
